{
  "contractName": "WeatherCheck",
  "abi": [
    {
      "inputs": [],
      "payable": false,
      "stateMutability": "nonpayable",
      "type": "constructor"
    },
    {
      "anonymous": false,
      "inputs": [
        {
          "indexed": true,
          "internalType": "bytes32",
          "name": "id",
          "type": "bytes32"
        }
      ],
      "name": "ChainlinkCancelled",
      "type": "event"
    },
    {
      "anonymous": false,
      "inputs": [
        {
          "indexed": true,
          "internalType": "bytes32",
          "name": "id",
          "type": "bytes32"
        }
      ],
      "name": "ChainlinkFulfilled",
      "type": "event"
    },
    {
      "anonymous": false,
      "inputs": [
        {
          "indexed": true,
          "internalType": "bytes32",
          "name": "id",
          "type": "bytes32"
        }
      ],
      "name": "ChainlinkRequested",
      "type": "event"
    },
    {
      "anonymous": false,
      "inputs": [
        {
          "indexed": false,
          "internalType": "address",
          "name": "userAddress",
          "type": "address"
        },
        {
          "indexed": false,
          "internalType": "address payable",
          "name": "relayerAddress",
          "type": "address"
        },
        {
          "indexed": false,
          "internalType": "bytes",
          "name": "functionSignature",
          "type": "bytes"
        }
      ],
      "name": "MetaTransactionExecuted",
      "type": "event"
    },
    {
      "anonymous": false,
      "inputs": [
        {
          "indexed": false,
          "internalType": "int256",
          "name": "ethUSDPrice",
          "type": "int256"
        }
      ],
      "name": "contractReset",
      "type": "event"
    },
    {
      "anonymous": false,
      "inputs": [
        {
          "indexed": false,
          "internalType": "int256",
          "name": "ethUSDPrice",
          "type": "int256"
        },
        {
          "indexed": false,
          "internalType": "int256",
          "name": "linkUSDPrice",
          "type": "int256"
        }
      ],
      "name": "newRequest",
      "type": "event"
    },
    {
      "payable": true,
      "stateMutability": "payable",
      "type": "fallback"
    },
    {
      "constant": false,
      "inputs": [
        {
          "internalType": "address",
          "name": "userAddress",
          "type": "address"
        },
        {
          "internalType": "bytes",
          "name": "functionSignature",
          "type": "bytes"
        },
        {
          "internalType": "bytes32",
          "name": "sigR",
          "type": "bytes32"
        },
        {
          "internalType": "bytes32",
          "name": "sigS",
          "type": "bytes32"
        },
        {
          "internalType": "uint8",
          "name": "sigV",
          "type": "uint8"
        }
      ],
      "name": "executeMetaTransaction",
      "outputs": [
        {
          "internalType": "bytes",
          "name": "",
          "type": "bytes"
        }
      ],
      "payable": true,
      "stateMutability": "payable",
      "type": "function"
    },
    {
      "constant": true,
      "inputs": [
        {
          "internalType": "address",
          "name": "user",
          "type": "address"
        }
      ],
      "name": "getNonce",
      "outputs": [
        {
          "internalType": "uint256",
          "name": "nonce",
          "type": "uint256"
        }
      ],
      "payable": false,
      "stateMutability": "view",
      "type": "function"
    },
    {
      "constant": true,
      "inputs": [],
      "name": "owner",
      "outputs": [
        {
          "internalType": "address",
          "name": "",
          "type": "address"
        }
      ],
      "payable": false,
      "stateMutability": "view",
      "type": "function"
    },
    {
      "constant": true,
      "inputs": [],
      "name": "resultReceived",
      "outputs": [
        {
          "internalType": "bool",
          "name": "",
          "type": "bool"
        }
      ],
      "payable": false,
      "stateMutability": "view",
      "type": "function"
    },
    {
      "constant": true,
      "inputs": [],
      "name": "tempCheckCount",
      "outputs": [
        {
          "internalType": "uint256",
          "name": "",
          "type": "uint256"
        }
      ],
      "payable": false,
      "stateMutability": "view",
      "type": "function"
    },
    {
      "constant": true,
      "inputs": [],
      "name": "tempResult",
      "outputs": [
        {
          "internalType": "uint256",
          "name": "",
          "type": "uint256"
        }
      ],
      "payable": false,
      "stateMutability": "view",
      "type": "function"
    },
    {
      "constant": false,
      "inputs": [
        {
          "internalType": "string",
          "name": "city",
          "type": "string"
        }
      ],
      "name": "makeRequest",
      "outputs": [
        {
          "internalType": "bytes32",
          "name": "requestId",
          "type": "bytes32"
        }
      ],
      "payable": false,
      "stateMutability": "nonpayable",
      "type": "function"
    },
    {
      "constant": false,
      "inputs": [
        {
          "internalType": "bytes32",
          "name": "_requestId",
          "type": "bytes32"
        },
        {
          "internalType": "uint256",
          "name": "_result",
          "type": "uint256"
        }
      ],
      "name": "fulfill",
      "outputs": [],
      "payable": false,
      "stateMutability": "nonpayable",
      "type": "function"
    },
    {
      "constant": false,
      "inputs": [],
      "name": "resetResult",
      "outputs": [],
      "payable": false,
      "stateMutability": "nonpayable",
      "type": "function"
    },
    {
      "constant": false,
      "inputs": [],
      "name": "withdrawLink",
      "outputs": [],
      "payable": false,
      "stateMutability": "nonpayable",
      "type": "function"
    },
    {
      "constant": true,
      "inputs": [],
      "name": "getCurrentTemp",
      "outputs": [
        {
          "internalType": "uint256",
          "name": "",
          "type": "uint256"
        }
      ],
      "payable": false,
      "stateMutability": "view",
      "type": "function"
    },
    {
      "constant": true,
      "inputs": [],
      "name": "getTempCheckCount",
      "outputs": [
        {
          "internalType": "uint256",
          "name": "",
          "type": "uint256"
        }
      ],
      "payable": false,
      "stateMutability": "view",
      "type": "function"
    },
    {
      "constant": true,
      "inputs": [],
      "name": "getChainlinkToken",
      "outputs": [
        {
          "internalType": "address",
          "name": "",
          "type": "address"
        }
      ],
      "payable": false,
      "stateMutability": "view",
      "type": "function"
    },
    {
      "constant": false,
      "inputs": [
        {
          "internalType": "address",
          "name": "_addr",
          "type": "address"
        },
        {
          "internalType": "uint256",
          "name": "_value",
          "type": "uint256"
        },
        {
          "internalType": "bytes",
          "name": "_data",
          "type": "bytes"
        }
      ],
      "name": "onTokenTransfer",
      "outputs": [],
      "payable": false,
      "stateMutability": "nonpayable",
      "type": "function"
    }
  ],
  "bytecode": "0x608060405260016004553480156200001657600080fd5b506040518060400160405280600c81526020017f57656174686572436865636b00000000000000000000000000000000000000008152506040518060400160405280600181526020017f3100000000000000000000000000000000000000000000000000000000000000815250818160405180608001604052806052815260200162002ce2605291398051906020012082805190602001208280519060200120620000c66200023a60201b60201c565b30604051602001620000dd9594939291906200049f565b60405160208183030381529060405280519060200120600681905550505050506200010d6200024260201b60201c565b62000132734a3fbbb385b5efeb4bc84a25aaadcd644bd09721620002ea60201b60201c565b620001426200032e60201b60201c565b600a60006101000a81548173ffffffffffffffffffffffffffffffffffffffff021916908373ffffffffffffffffffffffffffffffffffffffff1602179055506000600981905550738468b2bdce073a157e560aa4d9ccf6db1db98507600b60006101000a81548173ffffffffffffffffffffffffffffffffffffffff021916908373ffffffffffffffffffffffffffffffffffffffff16021790555073c21c178fe75aad2017da25071c54462e26d8face600c60006101000a81548173ffffffffffffffffffffffffffffffffffffffff021916908373ffffffffffffffffffffffffffffffffffffffff1602179055506200055e565b600046905090565b620002e873c89bd4e1632d3a43cb03aaad5262cbe4038bc57173ffffffffffffffffffffffffffffffffffffffff166338cc48316040518163ffffffff1660e01b815260040160206040518083038186803b158015620002a157600080fd5b505afa158015620002b6573d6000803e3d6000fd5b505050506040513d601f19601f82011682018060405250620002dc919081019062000440565b620003e560201b60201c565b565b80600360006101000a81548173ffffffffffffffffffffffffffffffffffffffff021916908373ffffffffffffffffffffffffffffffffffffffff16021790555050565b60003073ffffffffffffffffffffffffffffffffffffffff163373ffffffffffffffffffffffffffffffffffffffff161415620003db5760606000368080601f016020809104026020016040519081016040528093929190818152602001838380828437600081840152601f19601f820116905080830192505050505050509050600080369050905073ffffffffffffffffffffffffffffffffffffffff818301511692505050620003df565b3390505b80905090565b80600260006101000a81548173ffffffffffffffffffffffffffffffffffffffff021916908373ffffffffffffffffffffffffffffffffffffffff16021790555050565b6000815190506200043a8162000544565b92915050565b6000602082840312156200045357600080fd5b6000620004638482850162000429565b91505092915050565b6200047781620004fc565b82525050565b620004888162000510565b82525050565b62000499816200053a565b82525050565b600060a082019050620004b660008301886200047d565b620004c560208301876200047d565b620004d460408301866200047d565b620004e360608301856200048e565b620004f260808301846200046c565b9695505050505050565b600062000509826200051a565b9050919050565b6000819050919050565b600073ffffffffffffffffffffffffffffffffffffffff82169050919050565b6000819050919050565b6200054f81620004fc565b81146200055b57600080fd5b50565b612774806200056e6000396000f3fe6080604052600436106100dd5760003560e01c8063565e24531161007f5780638e9dc380116100595780638e9dc3801461027a578063a4c0ed36146102b7578063a81baa1d146102e0578063daddf2851461030b576100dd565b8063565e24531461020d5780638da5cb5b146102385780638dc654a214610263576100dd565b80632d0335ab116100bb5780632d0335ab146101655780634357855e146101a2578063456cf2f2146101cb5780634cd38cc2146101e2576100dd565b80630c53c51c146100df578063165d35e11461010f57806318a0e76d1461013a575b005b6100f960048036036100f49190810190611a07565b610336565b60405161010691906122b7565b60405180910390f35b34801561011b57600080fd5b506101246105af565b6040516101319190612097565b60405180910390f35b34801561014657600080fd5b5061014f6105be565b60405161015c91906123dd565b60405180910390f35b34801561017157600080fd5b5061018c600480360361018791908101906119de565b6105c8565b60405161019991906123dd565b60405180910390f35b3480156101ae57600080fd5b506101c960048036036101c49190810190611b26565b610611565b005b3480156101d757600080fd5b506101e0610749565b005b3480156101ee57600080fd5b506101f761084c565b60405161020491906121f7565b60405180910390f35b34801561021957600080fd5b5061022261085f565b60405161022f91906123dd565b60405180910390f35b34801561024457600080fd5b5061024d610869565b60405161025a9190612097565b60405180910390f35b34801561026f57600080fd5b5061027861088f565b005b34801561028657600080fd5b506102a1600480360361029c9190810190611b8b565b610a53565b6040516102ae9190612212565b60405180910390f35b3480156102c357600080fd5b506102de60048036036102d99190810190611a96565b610d72565b005b3480156102ec57600080fd5b506102f5610d81565b60405161030291906123dd565b60405180910390f35b34801561031757600080fd5b50610320610d87565b60405161032d91906123dd565b60405180910390f35b60606103406117cb565b6040518060600160405280600760008a73ffffffffffffffffffffffffffffffffffffffff1673ffffffffffffffffffffffffffffffffffffffff1681526020019081526020016000205481526020018873ffffffffffffffffffffffffffffffffffffffff1681526020018781525090506103bf8782878787610d8d565b6103fe576040517f08c379a00000000000000000000000000000000000000000000000000000000081526004016103f59061239d565b60405180910390fd5b600060603073ffffffffffffffffffffffffffffffffffffffff16888a60405160200161042c92919061200c565b6040516020818303038152906040526040516104489190611ff5565b6000604051808303816000865af19150503d8060008114610485576040519150601f19603f3d011682016040523d82523d6000602084013e61048a565b606091505b5091509150816104cf576040517f08c379a00000000000000000000000000000000000000000000000000000000081526004016104c69061235d565b60405180910390fd5b6105226001600760008c73ffffffffffffffffffffffffffffffffffffffff1673ffffffffffffffffffffffffffffffffffffffff16815260200190815260200160002054610e2790919063ffffffff16565b600760008b73ffffffffffffffffffffffffffffffffffffffff1673ffffffffffffffffffffffffffffffffffffffff168152602001908152602001600020819055507f5845892132946850460bff5a0083f71031bc5bf9aadcd40f1de79423eac9b10b89338a604051610598939291906120f6565b60405180910390a180935050505095945050505050565b60006105b9610e7c565b905090565b6000600954905090565b6000600760008373ffffffffffffffffffffffffffffffffffffffff1673ffffffffffffffffffffffffffffffffffffffff168152602001908152602001600020549050919050565b816005600082815260200190815260200160002060009054906101000a900473ffffffffffffffffffffffffffffffffffffffff1673ffffffffffffffffffffffffffffffffffffffff163373ffffffffffffffffffffffffffffffffffffffff16146106b3576040517f08c379a00000000000000000000000000000000000000000000000000000000081526004016106aa906123bd565b60405180910390fd5b6005600082815260200190815260200160002060006101000a81549073ffffffffffffffffffffffffffffffffffffffff0219169055807f7cc135e0cebb02c3480ae5d74d377283180a2601f8f644edf7987b009316c63a60405160405180910390a26001600a60146101000a81548160ff02191690831515021790555081600881905550600160095401600981905550505050565b6000600a60146101000a81548160ff021916908315150217905550600060088190555060006009819055507fc65c4c99140b1aefce6c290f708093f4987e42cf1e3fabe5ae019c926e8bbe01600b60009054906101000a900473ffffffffffffffffffffffffffffffffffffffff1673ffffffffffffffffffffffffffffffffffffffff166350d25bcd6040518163ffffffff1660e01b815260040160206040518083038186803b1580156107fd57600080fd5b505afa158015610811573d6000803e3d6000fd5b505050506040513d601f19601f820116820180604052506108359190810190611b62565b60405161084291906122d9565b60405180910390a1565b600a60149054906101000a900460ff1681565b6000600854905090565b600a60009054906101000a900473ffffffffffffffffffffffffffffffffffffffff1681565b600a60009054906101000a900473ffffffffffffffffffffffffffffffffffffffff1673ffffffffffffffffffffffffffffffffffffffff166108d0610ea6565b73ffffffffffffffffffffffffffffffffffffffff16146108f057600080fd5b60006108fa610e7c565b90508073ffffffffffffffffffffffffffffffffffffffff1663a9059cbb338373ffffffffffffffffffffffffffffffffffffffff166370a08231306040518263ffffffff1660e01b815260040161095291906120b2565b60206040518083038186803b15801561096a57600080fd5b505afa15801561097e573d6000803e3d6000fd5b505050506040513d601f19601f820116820180604052506109a29190810190611bcc565b6040518363ffffffff1660e01b81526004016109bf9291906120cd565b602060405180830381600087803b1580156109d957600080fd5b505af11580156109ed573d6000803e3d6000fd5b505050506040513d601f19601f82011682018060405250610a119190810190611afd565b610a50576040517f08c379a0000000000000000000000000000000000000000000000000000000008152600401610a479061237d565b60405180910390fd5b50565b6000610a5d611802565b610a8f7f366533346438646632623836343339336131663662376533383931373730366230634357855e60e01b610f5b565b9050610adb6040518060400160405280600181526020017f71000000000000000000000000000000000000000000000000000000000000008152508483610f8c9092919063ffffffff16565b610b5a6040518060400160405280600b81526020017f6e756d5f6f665f646179730000000000000000000000000000000000000000008152506040518060400160405280600181526020017f310000000000000000000000000000000000000000000000000000000000000081525083610f8c9092919063ffffffff16565b610bd96040518060400160405280600881526020017f636f7079506174680000000000000000000000000000000000000000000000008152506040518060400160405280601781526020017f646174612e776561746865722e302e61766774656d704300000000000000000081525083610f8c9092919063ffffffff16565b610bf3610be4610fbf565b8267017fb16d83be0000610fe9565b91507ffcec3eab9d5f960da56e1e0007d265c1e5ce31a294bf9af4d5331a0be69301cb600b60009054906101000a900473ffffffffffffffffffffffffffffffffffffffff1673ffffffffffffffffffffffffffffffffffffffff166350d25bcd6040518163ffffffff1660e01b815260040160206040518083038186803b158015610c7e57600080fd5b505afa158015610c92573d6000803e3d6000fd5b505050506040513d601f19601f82011682018060405250610cb69190810190611b62565b600c60009054906101000a900473ffffffffffffffffffffffffffffffffffffffff1673ffffffffffffffffffffffffffffffffffffffff166350d25bcd6040518163ffffffff1660e01b815260040160206040518083038186803b158015610d1e57600080fd5b505afa158015610d32573d6000803e3d6000fd5b505050506040513d601f19601f82011682018060405250610d569190810190611b62565b604051610d649291906122f4565b60405180910390a150919050565b610d7b81610a53565b50505050565b60085481565b60095481565b60006001610da2610d9d876111b6565b61122c565b83868660405160008152602001604052604051610dc29493929190612272565b6020604051602081039080840390855afa158015610de4573d6000803e3d6000fd5b5050506020604051035173ffffffffffffffffffffffffffffffffffffffff168673ffffffffffffffffffffffffffffffffffffffff1614905095945050505050565b600080828401905083811015610e72576040517f08c379a0000000000000000000000000000000000000000000000000000000008152600401610e699061231d565b60405180910390fd5b8091505092915050565b6000600260009054906101000a900473ffffffffffffffffffffffffffffffffffffffff16905090565b60003073ffffffffffffffffffffffffffffffffffffffff163373ffffffffffffffffffffffffffffffffffffffff161415610f515760606000368080601f016020809104026020016040519081016040528093929190818152602001838380828437600081840152601f19601f820116905080830192505050505050509050600080369050905073ffffffffffffffffffffffffffffffffffffffff818301511692505050610f55565b3390505b80905090565b610f63611802565b610f6b611802565b610f8285858584611265909392919063ffffffff16565b9150509392505050565b610fa382846080015161131590919063ffffffff16565b610fba81846080015161131590919063ffffffff16565b505050565b6000600360009054906101000a900473ffffffffffffffffffffffffffffffffffffffff16905090565b600030600454604051602001611000929190612034565b604051602081830303815290604052805190602001209050600454836060018181525050836005600083815260200190815260200160002060006101000a81548173ffffffffffffffffffffffffffffffffffffffff021916908373ffffffffffffffffffffffffffffffffffffffff160217905550807fb5e6e01e79f91267dc17b4e6314d5d4d03593d2ceee0fbb452b750bd70ea5af960405160405180910390a2600260009054906101000a900473ffffffffffffffffffffffffffffffffffffffff1673ffffffffffffffffffffffffffffffffffffffff16634000aea085846110ec8761133a565b6040518463ffffffff1660e01b815260040161110a939291906121b9565b602060405180830381600087803b15801561112457600080fd5b505af1158015611138573d6000803e3d6000fd5b505050506040513d601f19601f8201168201806040525061115c9190810190611afd565b61119b576040517f08c379a00000000000000000000000000000000000000000000000000000000081526004016111929061233d565b60405180910390fd5b60016004600082825401925050819055508090509392505050565b60006040518060800160405280604381526020016126ef60439139805190602001208260000151836020015184604001516040516111f49190611fde565b604051809103902060405160200161120f949392919061222d565b604051602081830303815290604052805190602001209050919050565b600061123661141c565b82604051602001611248929190612060565b604051602081830303815290604052805190602001209050919050565b61126d611802565b61127d8560800151610100611426565b508385600001818152505082856020019073ffffffffffffffffffffffffffffffffffffffff16908173ffffffffffffffffffffffffffffffffffffffff16815250508185604001907bffffffffffffffffffffffffffffffffffffffffffffffffffffffff191690817bffffffffffffffffffffffffffffffffffffffffffffffffffffffff191681525050849050949350505050565b611322826003835161147a565b61133581836115bf90919063ffffffff16565b505050565b6060600360009054906101000a900473ffffffffffffffffffffffffffffffffffffffff1673ffffffffffffffffffffffffffffffffffffffff166340429946905060e01b600080846000015185602001518660400151876060015160018960800151600001516040516024016113b8989796959493929190612134565b604051602081830303815290604052907bffffffffffffffffffffffffffffffffffffffffffffffffffffffff19166020820180517bffffffffffffffffffffffffffffffffffffffffffffffffffffffff83818316178352505050509050919050565b6000600654905090565b61142e61186f565b60006020838161143a57fe5b0614611453576020828161144a57fe5b06602003820191505b81836020018181525050604051808452600081528281016020016040525082905092915050565b601781116114a7576114a18160058460ff16901b60ff1617846115e190919063ffffffff16565b506115ba565b60ff81116114e9576114cc601860058460ff16901b17846115e190919063ffffffff16565b506114e3816001856116019092919063ffffffff16565b506115b9565b61ffff811161152c5761150f601960058460ff16901b17846115e190919063ffffffff16565b50611526816002856116019092919063ffffffff16565b506115b8565b63ffffffff811161157157611554601a60058460ff16901b17846115e190919063ffffffff16565b5061156b816004856116019092919063ffffffff16565b506115b7565b67ffffffffffffffff81116115b65761159d601b60058460ff16901b17846115e190919063ffffffff16565b506115b4816008856116019092919063ffffffff16565b505b5b5b5b5b505050565b6115c761186f565b6115d983846000015151848551611623565b905092915050565b6115e961186f565b6115f983846000015151846116dc565b905092915050565b61160961186f565b61161a84856000015151858561172a565b90509392505050565b61162b61186f565b825182111561163957600080fd5b846020015182850111156116645761166385600261165d886020015188870161178b565b026117a7565b5b6000808651805187602083010193508088870111156116835787860182525b60208701925050505b602084106116af578051825260208201915060208101905060208403935061168c565b60006001856020036101000a03905080198251168184511681811785525050879350505050949350505050565b6116e461186f565b83602001518310611701576117008460028660200151026117a7565b5b835180516020858301018481538186141561171d576001820183525b5050508390509392505050565b61173261186f565b846020015184830111156117505761174f856002868501026117a7565b5b60006001836101000a039050855183868201018583198251161781528151858801111561177d5784870182525b505085915050949350505050565b60008183111561179d578290506117a1565b8190505b92915050565b6060826000015190506117ba8383611426565b506117c583826115bf565b50505050565b604051806060016040528060008152602001600073ffffffffffffffffffffffffffffffffffffffff168152602001606081525090565b6040518060a0016040528060008019168152602001600073ffffffffffffffffffffffffffffffffffffffff16815260200160007bffffffffffffffffffffffffffffffffffffffffffffffffffffffff1916815260200160008152602001611869611889565b81525090565b604051806040016040528060608152602001600081525090565b604051806040016040528060608152602001600081525090565b6000813590506118b281612664565b92915050565b6000815190506118c78161267b565b92915050565b6000813590506118dc81612692565b92915050565b600082601f8301126118f357600080fd5b813561190661190182612425565b6123f8565b9150808252602083016020830185838301111561192257600080fd5b61192d8382846125cc565b50505092915050565b600081519050611945816126a9565b92915050565b600082601f83011261195c57600080fd5b813561196f61196a82612451565b6123f8565b9150808252602083016020830185838301111561198b57600080fd5b6119968382846125cc565b50505092915050565b6000813590506119ae816126c0565b92915050565b6000815190506119c3816126c0565b92915050565b6000813590506119d8816126d7565b92915050565b6000602082840312156119f057600080fd5b60006119fe848285016118a3565b91505092915050565b600080600080600060a08688031215611a1f57600080fd5b6000611a2d888289016118a3565b955050602086013567ffffffffffffffff811115611a4a57600080fd5b611a56888289016118e2565b9450506040611a67888289016118cd565b9350506060611a78888289016118cd565b9250506080611a89888289016119c9565b9150509295509295909350565b600080600060608486031215611aab57600080fd5b6000611ab9868287016118a3565b9350506020611aca8682870161199f565b925050604084013567ffffffffffffffff811115611ae757600080fd5b611af3868287016118e2565b9150509250925092565b600060208284031215611b0f57600080fd5b6000611b1d848285016118b8565b91505092915050565b60008060408385031215611b3957600080fd5b6000611b47858286016118cd565b9250506020611b588582860161199f565b9150509250929050565b600060208284031215611b7457600080fd5b6000611b8284828501611936565b91505092915050565b600060208284031215611b9d57600080fd5b600082013567ffffffffffffffff811115611bb757600080fd5b611bc38482850161194b565b91505092915050565b600060208284031215611bde57600080fd5b6000611bec848285016119b4565b91505092915050565b611bfe81612572565b82525050565b611c0d816124dd565b82525050565b611c1c816124cb565b82525050565b611c33611c2e826124cb565b61260e565b82525050565b611c42816124ef565b82525050565b611c51816124fb565b82525050565b611c68611c63826124fb565b612620565b82525050565b611c7781612505565b82525050565b6000611c8882612488565b611c928185612493565b9350611ca28185602086016125db565b611cab81612646565b840191505092915050565b6000611cc182612488565b611ccb81856124a4565b9350611cdb8185602086016125db565b80840191505092915050565b6000611cf28261247d565b611cfc8185612493565b9350611d0c8185602086016125db565b611d1581612646565b840191505092915050565b6000611d2b8261247d565b611d3581856124a4565b9350611d458185602086016125db565b80840191505092915050565b611d62611d5d82612584565b61260e565b82525050565b611d7181612531565b82525050565b6000611d846002836124c0565b91507f19010000000000000000000000000000000000000000000000000000000000006000830152600282019050919050565b6000611dc4601b836124af565b91507f536166654d6174683a206164646974696f6e206f766572666c6f7700000000006000830152602082019050919050565b6000611e046023836124af565b91507f756e61626c6520746f207472616e73666572416e6443616c6c20746f206f726160008301527f636c6500000000000000000000000000000000000000000000000000000000006020830152604082019050919050565b6000611e6a601d836124af565b91507f46756e6374696f6e2063616c6c206e6f74207375636365737366756c6c0000006000830152602082019050919050565b6000611eaa6012836124af565b91507f556e61626c6520746f207472616e7366657200000000000000000000000000006000830152602082019050919050565b6000611eea6021836124af565b91507f5369676e657220616e64207369676e617475726520646f206e6f74206d61746360008301527f68000000000000000000000000000000000000000000000000000000000000006020830152604082019050919050565b6000611f506028836124af565b91507f536f75726365206d75737420626520746865206f7261636c65206f662074686560008301527f20726571756573740000000000000000000000000000000000000000000000006020830152604082019050919050565b611fb28161255b565b82525050565b611fc9611fc48261255b565b61263c565b82525050565b611fd881612565565b82525050565b6000611fea8284611d20565b915081905092915050565b60006120018284611cb6565b915081905092915050565b60006120188285611cb6565b91506120248284611c22565b6014820191508190509392505050565b60006120408285611d51565b6014820191506120508284611fb8565b6020820191508190509392505050565b600061206b82611d77565b91506120778285611c57565b6020820191506120878284611c57565b6020820191508190509392505050565b60006020820190506120ac6000830184611c13565b92915050565b60006020820190506120c76000830184611bf5565b92915050565b60006040820190506120e26000830185611bf5565b6120ef6020830184611fa9565b9392505050565b600060608201905061210b6000830186611c13565b6121186020830185611c04565b818103604083015261212a8184611c7d565b9050949350505050565b60006101008201905061214a600083018b611c13565b612157602083018a611fa9565b6121646040830189611c48565b6121716060830188611c13565b61217e6080830187611c6e565b61218b60a0830186611fa9565b61219860c0830185611fa9565b81810360e08301526121aa8184611ce7565b90509998505050505050505050565b60006060820190506121ce6000830186611c13565b6121db6020830185611fa9565b81810360408301526121ed8184611c7d565b9050949350505050565b600060208201905061220c6000830184611c39565b92915050565b60006020820190506122276000830184611c48565b92915050565b60006080820190506122426000830187611c48565b61224f6020830186611fa9565b61225c6040830185611c13565b6122696060830184611c48565b95945050505050565b60006080820190506122876000830187611c48565b6122946020830186611fcf565b6122a16040830185611c48565b6122ae6060830184611c48565b95945050505050565b600060208201905081810360008301526122d18184611c7d565b905092915050565b60006020820190506122ee6000830184611d68565b92915050565b60006040820190506123096000830185611d68565b6123166020830184611d68565b9392505050565b6000602082019050818103600083015261233681611db7565b9050919050565b6000602082019050818103600083015261235681611df7565b9050919050565b6000602082019050818103600083015261237681611e5d565b9050919050565b6000602082019050818103600083015261239681611e9d565b9050919050565b600060208201905081810360008301526123b681611edd565b9050919050565b600060208201905081810360008301526123d681611f43565b9050919050565b60006020820190506123f26000830184611fa9565b92915050565b6000604051905081810181811067ffffffffffffffff8211171561241b57600080fd5b8060405250919050565b600067ffffffffffffffff82111561243c57600080fd5b601f19601f8301169050602081019050919050565b600067ffffffffffffffff82111561246857600080fd5b601f19601f8301169050602081019050919050565b600081519050919050565b600081519050919050565b600082825260208201905092915050565b600081905092915050565b600082825260208201905092915050565b600081905092915050565b60006124d68261253b565b9050919050565b60006124e88261253b565b9050919050565b60008115159050919050565b6000819050919050565b60007fffffffff0000000000000000000000000000000000000000000000000000000082169050919050565b6000819050919050565b600073ffffffffffffffffffffffffffffffffffffffff82169050919050565b6000819050919050565b600060ff82169050919050565b600061257d826125a8565b9050919050565b600061258f82612596565b9050919050565b60006125a18261253b565b9050919050565b60006125b3826125ba565b9050919050565b60006125c58261253b565b9050919050565b82818337600083830152505050565b60005b838110156125f95780820151818401526020810190506125de565b83811115612608576000848401525b50505050565b60006126198261262a565b9050919050565b6000819050919050565b600061263582612657565b9050919050565b6000819050919050565b6000601f19601f8301169050919050565b60008160601b9050919050565b61266d816124cb565b811461267857600080fd5b50565b612684816124ef565b811461268f57600080fd5b50565b61269b816124fb565b81146126a657600080fd5b50565b6126b281612531565b81146126bd57600080fd5b50565b6126c98161255b565b81146126d457600080fd5b50565b6126e081612565565b81146126eb57600080fd5b5056fe4d6574615472616e73616374696f6e2875696e74323536206e6f6e63652c616464726573732066726f6d2c62797465732066756e6374696f6e5369676e617475726529a365627a7a72315820df354838c604817645debcad214d9143fa1b7ae4c04928df106c2afd80d027156c6578706572696d656e74616cf564736f6c634300050d0040454950373132446f6d61696e28737472696e67206e616d652c737472696e672076657273696f6e2c75696e7432353620636861696e49642c6164647265737320766572696679696e67436f6e747261637429",
  "source": "pragma solidity ^0.5.13;\r\npragma experimental ABIEncoderV2;\r\n\r\n\r\nimport \"@chainlink/contracts/src/v0.5/ChainlinkClient.sol\";\r\nimport \"@chainlink/contracts/src/v0.5/interfaces/AggregatorInterface.sol\";   \r\nimport \"./EIP712MetaTransaction.sol\";\r\n\r\n        \r\ncontract WeatherCheck is ChainlinkClient, EIP712MetaTransaction(\"WeatherCheck\",\"1\") {\r\n  \r\n  uint256 public tempResult; // Stores the answer from the Chainlink oracle\r\n  uint256 public tempCheckCount;  // Stores the amount of times the request has been made\r\n  address public owner; // stores the owner of the contract\r\n  bool public resultReceived; //stores if a result has been received \r\n   \r\n  address constant private ORACLE = 0x4a3FBbB385b5eFEB4BC84a25AaADcD644Bd09721; //oracle ID for Honeycomb.market World Weather API\r\n  uint256 constant private ORACLE_PAYMENT_AMOUNT = 0.108 * 1 ether;\r\n  bytes32 constant private JOB_ID = \"6e34d8df2b864393a1f6b7e38917706b\" ;  //job ID for Honeycomb.market World Weather API\r\n \r\n  \r\n  AggregatorInterface internal ethUSDPriceFeed;\r\n  AggregatorInterface internal linkUSDPriceFeed;\r\n  \r\n  //Events needed for tracking when contract events took place\r\n  event newRequest(int256 ethUSDPrice, int256 linkUSDPrice);\r\n  event contractReset(int256 ethUSDPrice);\r\n  \r\n  modifier onlyOwner() {\r\n        require(msgSender() == owner);\r\n     _;\r\n    }\r\n\r\n\r\n  constructor() public  {\r\n        setPublicChainlinkToken();\r\n        setChainlinkOracle(ORACLE);\r\n        owner = msgSender();\r\n        tempCheckCount = 0;\r\n        ethUSDPriceFeed = AggregatorInterface(0x8468b2bDCE073A157E560AA4D9CcF6dB1DB98507);\r\n        linkUSDPriceFeed = AggregatorInterface(0xc21c178fE75aAd2017DA25071c54462e26d8face);\r\n    }\r\n    \r\n   /**\r\n     * Makes a request to the Chainlink Oracle to fetch external data\r\n     */\r\n    function makeRequest(string  memory city) public returns (bytes32 requestId) {\r\n        Chainlink.Request memory req = buildChainlinkRequest(JOB_ID, address(this), this.fulfill.selector);\r\n        req.add(\"q\", city);\r\n        req.add(\"num_of_days\", \"1\");\r\n        req.add(\"copyPath\",\"data.weather.0.avgtempC\");\r\n        requestId = sendChainlinkRequestTo(chainlinkOracleAddress(), req, ORACLE_PAYMENT_AMOUNT);\r\n        emit newRequest(ethUSDPriceFeed.latestAnswer(), linkUSDPriceFeed.latestAnswer());\r\n    }\r\n\r\n   /**\r\n     * callback function from chainlink oracle network, updates the state of the contract based on the oracle results\r\n     */ \r\n    function fulfill(bytes32 _requestId, uint256 _result)  public recordChainlinkFulfillment(_requestId) {\r\n        resultReceived = true;\r\n        tempResult = _result;\r\n        tempCheckCount = tempCheckCount + 1;\r\n    }\r\n    \r\n   /**\r\n     * Simple function to reset the status of the contract\r\n     */     \r\n    function resetResult() external {\r\n        resultReceived = false;\r\n        tempResult = 0;\r\n        tempCheckCount = 0;\r\n        emit contractReset(ethUSDPriceFeed.latestAnswer());\r\n    }\r\n\r\n  \r\n   /**\r\n     * Let the contract owner withdraw any remaining LINK\r\n     */ \r\n    function withdrawLink() public  onlyOwner {\r\n        LinkTokenInterface link = LinkTokenInterface(chainlinkTokenAddress());\r\n        require(link.transfer(msg.sender, link.balanceOf(address(this))), \"Unable to transfer\");\r\n    }\r\n    \r\n    /**\r\n     * Get the temperature of the city currently stored in the contract\r\n     */ \r\n    function getCurrentTemp() external view returns (uint) {\r\n        return tempResult;\r\n    } \r\n    \r\n   /**\r\n     * Get the number of times temperature has been checked \r\n     */ \r\n    function getTempCheckCount() external view returns (uint) {\r\n        return tempCheckCount;\r\n    } \r\n    \r\n  /**\r\n   * @notice Returns the address of the LINK token\r\n   * This is the public implementation for chainlinkTokenAddress, which is\r\n   * an internal method of the ChainlinkClient contract\r\n   */\r\n  function getChainlinkToken() public view returns (address) {\r\n    return chainlinkTokenAddress();\r\n  }\r\n  \r\n /**\r\n   * This is the method called when a LINK transfer takes place to this contract. In this case we just call the function \r\n   * to get the external data required for the contract\r\n   */\r\n   \r\n  function onTokenTransfer(address _addr, uint256 _value, bytes memory _data) public {\r\n        makeRequest(string(_data));\r\n  }\r\n   \r\n    \r\n   /**\r\n     * Fallback function so contrat can receive ether when required\r\n     */ \r\n    function() external payable {  }\r\n    \r\n\r\n  \r\n}\r\n",
  "sourcePath": "C:/github/Link Gas Station/contracts/WeatherCheck.sol",
  "compiler": {
    "name": "solc",
    "version": "0.5.13+commit.5b0b510c.Emscripten.clang"
  },
  "schemaVersion": "3.2.3",
  "updatedAt": "2020-07-26T12:35:51.864Z",
  "devdoc": {
    "methods": {}
  },
  "userdoc": {
    "methods": {
      "executeMetaTransaction(address,bytes,bytes32,bytes32,uint8)": {
        "notice": "Executes the meta transaction if it's valid"
      },
      "fulfill(bytes32,uint256)": {
        "notice": "callback function from chainlink oracle network, updates the state of the contract based on the oracle results"
      },
      "getChainlinkToken()": {
        "notice": "Returns the address of the LINK token This is the public implementation for chainlinkTokenAddress, which is an internal method of the ChainlinkClient contract"
      },
      "getCurrentTemp()": {
        "notice": "Get the temperature of the city currently stored in the contract"
      },
      "getNonce(address)": {
        "notice": "Returns the nonce"
      },
      "getTempCheckCount()": {
        "notice": "Get the number of times temperature has been checked "
      },
      "makeRequest(string)": {
        "notice": "Makes a request to the Chainlink Oracle to fetch external data"
      },
      "onTokenTransfer(address,uint256,bytes)": {
        "notice": "This is the method called when a LINK transfer takes place to this contract. In this case we just call the function  to get the external data required for the contract"
      },
      "resetResult()": {
        "notice": "Simple function to reset the status of the contract"
      },
      "withdrawLink()": {
        "notice": "Let the contract owner withdraw any remaining LINK"
      }
    }
  }
}